:100000000C947F000C94A7000C94A7000C941F0C78
:100010000C941F0C0C941F0C0C94A7000C94EB0771
:100020000C94A7000C94A7000C94A7000C94AB09A7
:100030000C94A7000C94A7000C94A7000C94A700A4
:100040000C94C4130C94A7000C94DD160C940F1799
:100050000C94A7000C94A7000C94A7000C94A70084
:100060000C94B90F0C94A700084AD73B3BCE016E05
:1000700084BCBFFDC12F3D6C74319ABD56833DDAFF
:100080003D00C77F11BED9E4BB4C3E916BAAAABE0E
:10009000000000803F000000000800020100000393
:1000A0000407000000000000000001020408102006
:1000B00040800102040810200102040810200404FA
:1000C0000404040404040202020202020303030300
:1000D00003030000000023002600290000000000A8
:1000E000250028002B0000000000240027002A0023
:1000F0003902B907CF0EA3133F17BD07B61311245A
:100100001FBECFEFD8E0DEBFCDBF12E0A0E0B1E070
:10011000E8E6FFE302C005900D92A237B107D9F7D8
:1001200026E0A2E7B2E001C01D92AE39B207E1F7C6
:1001300010E0CAEFD0E004C02297FE010E94551DD6
:10014000C03FD107C9F70E9483170C94A71F0C94D6
:100150000000CF92DF92EF92FF920F931F93E82F50
:10016000F92F05C0015011092109310961F1908170
:1001700096239417B9F305C00150110921093109DB
:1001800011F1908196239413F7CFC12CD12CE12C3F
:10019000F12C0AC08FEFC81AD80AE80AF80A0C1521
:1001A0001D052E053F0579F080818623841791F384
:1001B0006C2D7D2D8E2D9F2D1F910F91FF90EF9017
:1001C000DF90CF90089560E070E080E090E01F91B4
:1001D0000F91FF90EF90DF90CF90089584B58368E2
:1001E00084BD17BC61E086E00C94D41484B58362AE
:1001F00084BD18BC61E085E00C94D414CF93DF93E8
:1002000060E08CE00E940D1560E088E00E940D1512
:10021000C7E0D0E060E084E00E940D158091730299
:1002200090E00C2E02C0959587950A94E2F780FF26
:1002300002C061E001C060E088E00E940D1561E04D
:1002400084E00E940D15219728F761E08CE0DF9192
:10025000CF910C940D15CF93DF93EC0161E08CE00E
:100260000E94D41461E087E00E94D41461E088E029
:100270000E94D41461E084E00E94D41410927302AE
:10028000CE010E94FE0060E087E0DF91CF910C94E8
:100290000D15E0EBF0E09081936890838770809378
:1002A000B1001092B30061E08BE00C94D414E0EB49
:1002B000F0E090819362908387708093B1001092F8
:1002C000B40061E083E00C94D4141F93CF93DF93C8
:1002D0001F92CDB7DEB7FC01142F6083418382E704
:1002E00092E069830E942B016981623039F198F4B0
:1002F000613009F042C080917302837F8093730262
:1003000082E792E00E94FE00812F0F90DF91CF9153
:100310001F910C944901633009F1643071F58091AB
:1003200073028E7B8093730282E792E00E94FE004C
:100330000F90DF91CF911F910C94F6008091730282
:100340008D7E8093730282E792E00E94FE00812FEF
:100350000F90DF91CF911F910C9457018091730200
:100360008F758093730282E792E00E94FE000F90E7
:10037000DF91CF911F910C94EE000F90DF91CF9100
:100380001F910895FC018081823091F018F4813032
:1003900031F00895833031F0843039F0089573E0FE
:1003A000E2E008C077E0E5E005C076E0E0E002C00A
:1003B00074E0E1E06230D1F0643069F1613009F05D
:1003C00040C041E050E09A01072E01C0220F0A947C
:1003D000EAF720950E2E01C0440F0A94EAF78091A7
:1003E0007302842B28232093730227C021E030E07E
:1003F000A9010E2E01C0440F0A94EAF7409580919E
:1004000073024823072E01C0220F0A94EAF7422BF9
:100410004093730212C081E090E0AC0101C0440F30
:10042000EA95EAF701C0880F7A95EAF7842B809560
:100430009091730298239093730282E792E00C9458
:10044000FE000895FC018081823061F018F4813053
:1004500031F00895833049F0843049F00895609375
:10046000B30008956093B400089567BD089568BD12
:100470000895109272020895CF93DF93EC010E94C9
:10048000A9088EE18B871C82DF91CF910895AF92EE
:10049000BF92CF92DF92EF92FF920F931F93CF9371
:1004A000DF93CDB7DEB76A970FB6F894DEBF0FBE05
:1004B000CDBF8C01CE0101967C01C12CD12C5C01F9
:1004C000C6010E945A1FF70181937F01FFEFCF1AE7
:1004D000DF0A8AE1C816D10499F72D813E814F8148
:1004E000588569817A818B819C810E942F1A298588
:1004F0003A854B855C850E942F1A2D853E854F8558
:1005000058890E942F1A29893A894B895C890E944F
:100510002F1A2D893E894F89588D0E942F1A6B0101
:100520007C01698D70E080E090E00E94941B9B014B
:10053000AC01C701B6010E942F1A20E030E04AE268
:1005400053E40E942F1A0E94661B8A8D68130CC008
:100550008AE1F501D8011D9601900D928A95E1F787
:1005600081E0F801848302C0F80114826A960FB614
:10057000F894DEBF0FBECDBFDF91CF911F910F91D9
:10058000FF90EF90DF90CF90BF90AF900895CF9203
:10059000DF92EF92FF920F931F93CF93DF938C0123
:1005A000EB012C813D814E815F81688179818A8157
:1005B0009B810E942F1A288539854A855B850E9478
:1005C0002F1A2C853D854E855F850E942F1A28891C
:1005D00039894A895B890E942F1A2C893D894E8965
:1005E0005F890E942F1A6B017C01688D70E080E0AA
:1005F00090E00E94941B9B01AC01C701B6010E94D0
:100600002F1A20E030E04AE253E40E942F1A0E94A1
:10061000661B698FE12CF12C6991C7010E94621F52
:100620008FEFE81AF80AEAE1EE16F104A9F781E083
:10063000F8018483DF91CF911F910F91FF90EF908C
:10064000DF90CF900895EF92FF921F93CF93DF93A7
:100650001F92CDB7DEB7162F7A01FC01638588E6BD
:1006600094E029830E94510E612F88E694E00E9455
:10067000080E2981813091F4422F50E0B70188E6BD
:1006800094E00E94DB0D61E088E694E00F90DF913A
:10069000CF911F91FF90EF900C945B0E8FEF0F9016
:1006A000DF91CF911F91FF90EF900895CF93DF934B
:1006B0001F92CDB7DEB7498321E0AE014F5F5F4F98
:1006C0000E9423030F90DF91CF910895EF92FF9244
:1006D0000F931F93CF93DF93EC01F62E8A01E22E46
:1006E0006B8588E694E00E94510E6F2D88E694E0B9
:1006F0000E94080E813001F560E088E694E00E94D7
:100700005B0E81112EC081E090E00E94651421E013
:100710004E2D6B8588E694E00E94BF0EE80100E054
:1007200010E0F12C88E694E00E94B00D892B31F0A6
:100730000E151F0574F002C08FEF13C081E090E02A
:100740000E94651481E00E151F0509F480E0819573
:1007500008C00F5F1F4F88E694E00E94B80D899390
:10076000E1CFDF91CF911F910F91FF90EF9008950E
:10077000CF93DF93EC01AC014B5F5F4F23E06AE066
:100780000E94660381110AC08D81883439F48E81FC
:10079000843321F481E09F81933309F080E0DF917D
:1007A000CF910895CF92DF92EF92FF920F931F9314
:1007B000CF93DF93EC016B018A0179010E941D0444
:1007C000AE014B5F5F4F26E063E0CE010E946603FF
:1007D000882321F0992787FD909526C08C8581304C
:1007E00031F441E062E070E0CE010E9456038D8159
:1007F00090E0982F88272E81822BF60191838083A9
:10080000898590E0982F88272A85822BF80191838B
:1008100080838F8190E0982F88272885822BF7018D
:100820009183808380E090E0DF91CF911F910F91C1
:10083000FF90EF90DF90CF9008952F923F924F92CC
:100840005F926F927F928F929F92AF92BF92CF9260
:10085000DF92EF92FF920F931F93CF93DF93CDB769
:10086000DEB76C970FB6F894DEBF0FBECDBF8C011C
:1008700062E00E94B9088111B2C16AE070E080E0D4
:1008800090E00E943D1462E0C8010E94B908811105
:10089000A6C1C8010E94B803882309F4A0C10E9420
:1008A0000E146B017C01712CBB24B39462E0C8016F
:1008B0000E94B908811115C00E940E146C197D099F
:1008C0008E099F09693C71058105910578F30E94A5
:1008D0000E146B017C017B24672DC8010E94CA089D
:1008E000E5CF64E670E080E090E00E943D140E9455
:1008F0000E144B015C012FEF3FE7388B2F8740E050
:1009000050E85E874D878FEF9FE79C878B87E0E0FD
:10091000F0E8FA87E98738872F83212C50E8352EB5
:10092000662463940E940E146C197D098E099F0938
:10093000693C71058105910548F00E940E146B0118
:100940007C017624672DC8010E94CA080E940E14FB
:10095000681979098A099B096B3071058105910530
:10096000E0F19E012F5F3F4FAE014D5F5F4FBE0133
:100970006B5F7F4FC8010E94D2038D819E814F81A2
:100980005885841795072CF02816390624F41C0185
:1009900002C098878F838B819C81EB85FC858E17A5
:1009A0009F0744F029853A85281739072CF49A8740
:1009B000898702C09C878B8789819A814F85588956
:1009C0008417950744F0ED85FE85E817F9072CF4A8
:1009D0009E878D8702C0988B8F8762E0C8010E9436
:1009E000B90881119FCF60E0C8010E94CA08B10117
:1009F000882777FD8095982F0E94941B6B017C01BE
:100A00002F813885B901882777FD8095982F0E941E
:100A1000941B698B7A8B8B8B9C8B9B01AC01C701E0
:100A2000B6010E942F1A905820E030E040E05FE3CA
:100A30000E94741CF801658776878787908B2985CB
:100A40003A85B901882777FD8095982F0E94941BDD
:100A50002B013C014B855C85BA01882777FD809589
:100A6000982F0E94941B6D8B7E8B8F8B988F9B0190
:100A7000AC01C301B2010E942F1A905820E030E06F
:100A800040E05FE30E94741CF801618B728B838BE2
:100A9000948B2D853E85B901882777FD8095982F09
:100AA0000E94941B4B015C014F855889BA0188272D
:100AB00077FD8095982F0E94941B698F7A8F8B8F7A
:100AC0009C8F9B01AC01C501B4010E942F1A905864
:100AD00020E030E040E05FE30E94741CF801658B89
:100AE000768B878B908F80E090E0A0E8BFE3818FCA
:100AF000928FA38FB48F29893A894B895C89C7016A
:100B0000B6010E942E1A6B017C012D893E894F8906
:100B1000588DC301B2010E942E1AA70196010E94AE
:100B2000F91AF801658F768F878F90A3298D3A8DFA
:100B30004B8D5C8DC501B4010E942E1AA701960150
:100B40000E94F91AF80161A372A383A394A32F81D1
:100B50003885221A330A37FE03C0319421943108B4
:100B600089859A854B855C85841B950B97FF03C00F
:100B70009195819591092D853E85EF85F8892E1BEC
:100B80003F0B37FF03C0319521953109821593053D
:100B90002CF02215330514F081E009C0281639061F
:100BA0002CF02817390714F082E001C083E0F80127
:100BB00085A3B801635F7F4FC8010E94C70261E04F
:100BC000C8010E94CA0862E0C8010E94B9088823CF
:100BD000D1F364E670E080E090E00E943D146C96F2
:100BE0000FB6F894DEBF0FBECDBFDF91CF911F913E
:100BF0000F91FF90EF90DF90CF90BF90AF909F90BC
:100C00008F907F906F905F904F903F902F900895BE
:100C1000CF93DF93EC0188E694E00E94470E61E0F9
:100C2000CE010E94CA0840E760E070E0CE010E9459
:100C3000560340E261E070E0CE010E94560381E07D
:100C40008C8741E062E070E0CE010E945603CE0145
:100C50000E944702CE01DF91CF910C941D04609356
:100C6000750240937402FC01608341830C94080672
:100C70002F923F924F925F926F927F928F929F92AC
:100C8000AF92BF92CF92DF92EF92FF920F931F939A
:100C9000CF93DF93CDB7DEB762970FB6F894DEBF80
:100CA0000FBECDBF8C010E941D049E012F5F3F4FE0
:100CB000AE014D5F5F4FBE016B5F7F4FC8010E9469
:100CC000D203882349F0682F772767FD7095872F17
:100CD000972F0E94941BC5C0F80184812D803E800F
:100CE0002B813C8138872F83882309F478C0458481
:100CF000568467847088818C928CA38CB48CB901E3
:100D0000882777FD8095982F0E94941BF8012189F0
:100D10003289438954890E942F1AF801258D368D16
:100D2000478D50A10E94741C0E94611B6F837887BD
:100D300089879A8769817A81882777FD8095982F9E
:100D40000E94941BF801258936894789508D0E949D
:100D50002F1AF80121A132A143A154A10E94741CB1
:100D60000E94611B6B877C878D879E87F80115A188
:100D7000113041F42B853C85B901882777FD80959A
:100D8000982F32C0B101882777FD8095982F0E9457
:100D9000941BA30192010E942F1AA50194010E94A5
:100DA000741C0E94611B4B015C01123089F42B857D
:100DB0003C85B901882777FD8095982F0E94941B68
:100DC0009B01AC01B401882777FD8095982F17C04F
:100DD000133019F5882777FD8095982F05C0B1014C
:100DE000882777FD8095982F0E94941B9B01AC016A
:100DF000EF81F885BF01882777FD8095982F2F8791
:100E0000388B498B5A8B0E94941B2F8538894989CE
:100E10005A890E94A21A6B017C0120E030E0A901EE
:100E2000C701B6010E94F51A87FF0DC02BED3FE008
:100E300049EC50E4C701B6010E942F1A20E030E0CF
:100E400044E353E406C020E030E044E353E4C70148
:100E5000B6010E94741C2BED3FE049E450E40E946F
:100E6000F91A62960FB6F894DEBF0FBECDBFDF91C0
:100E7000CF911F910F91FF90EF90DF90CF90BF9097
:100E8000AF909F908F907F906F905F904F903F902A
:100E90002F900895CF93DF93EC010E941D04AE01C3
:100EA0004B5F5F4F22E063E0CE010E946603882320
:100EB00021F0992787FD90950FC08C85813031F402
:100EC00041E062E070E0CE010E9456038D8190E027
:100ED000982F88272E81822BDF91CF910895CF9371
:100EE000DF93EC010E941D04AE014B5F5F4F22E0D7
:100EF00067E0CE010E946603882321F0992787FDD1
:100F000090950FC08C85813031F441E062E070E053
:100F1000CE010E9456038D8190E0982F88272E8164
:100F2000822BDF91CF910895CF93DF93EC010E9444
:100F30001D04AE014B5F5F4F22E065E0CE010E94D1
:100F40006603882321F0992787FD90950FC08C8533
:100F5000813031F441E062E070E0CE010E9456033E
:100F60008D8190E0982F88272E81822BDF91CF9161
:100F7000089586E792E00C94C10786E792E00C940E
:100F8000EA0721E030E0FC0131832083EE5FFE4F71
:100F90001082118212821382349610821182128280
:100FA000138234961082319610823196108211820B
:100FB00012821382349611821082329610823196F8
:100FC0001082118212821382349610821182128250
:100FD0001382089508951F920F920FB60F92112455
:100FE0000F931F932F933F934F935F936F937F9331
:100FF0008F939F93AF93BF93CF93EF93FF9382E031
:101000000E944315C82F20919703309198032F5FBA
:101010003F4F30939803209397038091FD038436CC
:1010200018F085E08093920390919203933079F0C9
:1010300018F4923039F070C0943011F1953009F401
:101040004AC06AC0C11168C01092FD0329C0C130F6
:1010500009F062C0E091FD0381E08E0F8093FD03F3
:10106000F0E08091970390919803EF56FC4F8087B2
:10107000109298031092970384E0809392034CC0DF
:10108000C11114C0E091FD0381E08E0F8093FD0338
:10109000F0E08091970390919803EF56FC4F808782
:1010A000109298031092970383E0E7CF8091970303
:1010B000909198038536910578F185E080939203AD
:1010C0000E940E146093930370939403809395038E
:1010D0009093960321C00E940E14009193031091E7
:1010E00094032091950330919603601B710B820B42
:1010F000930B693C71058105910540F01092FD0349
:10110000109298031092970382E0B7CFC11104C0E8
:101110001092980310929703FF91EF91CF91BF9196
:10112000AF919F918F917F916F915F914F913F917F
:101130002F911F910F910F900FBE0F901F90189538
:10114000FC0180910A01808380910B0181831282CE
:101150000895DC01E62FF0E0EE0FFF1FE65FFE4F83
:1011600080818C93818111968C93119712966C9348
:101170000895CF93DF93EC0188810E94D414888175
:101180000E94431521E0892B09F420E0822FDF9192
:10119000CF9108951F93CF93DF93EC01162F61E059
:1011A00089810E94D414612F8981DF91CF911F9191
:1011B0000C940D15CF93DF93EC014F960E94A0087D
:1011C00020E040E060E0CE010E94F20C8EE291E06F
:1011D0009983888361E072E0CE0182599F4F0E941B
:1011E000171A81E08BA38DA31CA2DF91CF910895E4
:1011F000CF92DF92EF92FF92CF93DF93EC016A01DF
:101200007B0160E472E48FE090E0A70196010E9408
:10121000341D3FA32EA38BA1882369F026E0B701DC
:10122000A6018DEF95E0DF91CF91FF90EF90DF90D9
:10123000CF900C947B16B701A601CE01DF91CF9120
:10124000FF90EF90DF90CF900C94220DCF92DF9221
:10125000EF92FF920F931F93CF93DF93FC01C6A1F0
:10126000D7A123976C01F6E7CF0ED11CF601808140
:101270000E944315892BF1F400E010E0E12CF12CE1
:10128000CE010E946514F60180810E944315002E54
:1012900002C0880F991F0A94E2F7E82AF92A0F5F23
:1012A0001F4F0830110561F7CE010E946514C70178
:1012B000992702C08FEF9FEFDF91CF911F910F9180
:1012C000FF90EF90DF90CF900895FC0123A122239F
:1012D00021F08DEF95E00C9416160C945B0BFC013D
:1012E00024A1222351F020A531A54FEF5FEF51A794
:1012F00040A737FF0CC00C942609FC0123A1222330
:1013000021F08DEF95E00C94B1150C943A0BC901C6
:101310000895CF93DF93EC018CA1882371F0CE0167
:101320000E94260988A799A7892F8095881F88275A
:10133000881F90E0DF91CF9108958BA1882331F031
:101340008DEF95E0DF91CF910C949815CE01DF9150
:10135000CF910C94C80B1F920F920FB60F921124CD
:101360002F933F934F935F936F937F938F939F93AD
:10137000AF93BF93EF93FF938091FF0387FF05C067
:1013800010928500109284001AC02091FF03332729
:1013900027FD30958091FE0390E0281739077CF4F3
:1013A0008091FF03992787FD9095FC01EE0FFF1FA9
:1013B000E80FF91FE050FC4F808186FD15C0809139
:1013C000FF038F5F8093FF032091FF03332727FDE7
:1013D00030958091FE0390E028173907BCF4809186
:1013E000FF038C305CF112C08091FF03992787FDC9
:1013F0009095FC01EE0FFF1FE80FF91FE050FC4F26
:10140000808160E08F730E940D15D9CF8091840098
:1014100090918500049680349C4918F480E49CE9FE
:1014200005C0809184009091850004969093890076
:10143000809388008FEF8093FF0338C02091840051
:10144000309185008091FF03992787FD9095FC01DD
:10145000EE0FFF1FE80FF91FE050FC4F81819281D2
:10146000820F931F90938900809388008091FF03DF
:10147000992787FD9095FC01EE0FFF1FE80FF91FDC
:10148000E050FC4F808186FF11C08091FF039927B7
:1014900087FD9095FC01EE0FFF1FE80FF91FE0504C
:1014A000FC4F808161E08F730E940D15FF91EF91D9
:1014B000BF91AF919F918F917F916F915F914F916C
:1014C0003F912F910F900FBE0F901F901895209174
:1014D000FE032C30A0F431E0320F3093FE03FC0108
:1014E0002083822F90E0FC01EE0FFF1FE80FF91F11
:1014F000E050FC4F88EB9BE09283818308952FEFAF
:10150000FC0120830895DF92EF92FF920F931F93C7
:10151000CF93DF93EC01D62E7A01890188818C303C
:1015200008F066C061E08D2D0E94D4148881A82F38
:10153000B0E0FD01EE0FFF1FEA0FFB1FE050FC4F74
:101540002D2D2F739081907C922B908360E272E01E
:101550006E197F0977FF02C06D5F7F4F75956795A4
:1015600075956795698340E659E0401B510B57FF1D
:1015700002C04D5F5F4F55954795559547954A83F6
:101580006CE00E94DE1C9CE0899FB001112420E0E9
:1015900030E0A901460F571FFA01EE0FFF1FE40FBD
:1015A000F51FE050FC4F908196FD16C02F5F3F4F16
:1015B0002C30310571F781110FC01092800082E04C
:1015C000809381001092850010928400B19A8091DE
:1015D0006F00826080936F00888190E0FC01EE0FC5
:1015E000FF1FE80FF91FE050FC4F8081806480836B
:1015F0008881DF91CF911F910F91FF90EF90DF9045
:10160000089520E639E040E252E00C94830AFC01A0
:1016100080818C3070F5918128E830E0291B3109F8
:1016200097FD3395220F331F220F331F6217730765
:101630007CF0928128E532E0291B310997FD339532
:10164000220F331F220F331F621773070CF49B0105
:1016500022503109220F331F4FB7F89490E0FC015C
:10166000EE0FFF1FE80FF91FE050FC4F328321837C
:101670004FBF0895209166043091670428173907F9
:10168000B9F49091240480912504981789F0E09191
:101690002404F0E0EA5DFB4F80812091240430E0D7
:1016A0002F5F3F4F2F7333272093240490E008953A
:1016B0008FEF9FEF08951F93CF93DF93DC015C962C
:1016C0008D919C915D97009749F481E090E013968D
:1016D0009C938E93129780E090E03BC05196ED91E1
:1016E000FC91529750962C915097322F30951FB7FE
:1016F0005E964C915E9741FB772770F941FD6095AE
:10170000F8944081772311F0422B01C0432340839A
:10171000EC012197F1F748E0508160FF02C0522BA5
:1017200001C053235083EC012197F1F76695415096
:1017300099F78081772311F0832301C0822B808366
:101740001FBF5C968D919C915D970197F1F781E0A9
:1017500090E0DF91CF911F91089508952091660444
:10176000309167042817390781F4909124048091FF
:101770002504981751F0E0912404F0E0EA5DFB4F56
:101780008081992787FD909508958FEF9FEF0895A9
:1017900020916604309167042817390771F480910D
:1017A00025042091240490E0805C9F4F821B9109C6
:1017B00060E470E00E94FE1C089580E090E00895CF
:1017C000E0916604F0916704E817F90769F4A389CA
:1017D000B4899C918589809589238C9310926704A4
:1017E0001092660481E0089580E00895CF93DF931E
:1017F000EC018A8D9B8D892BF1F08091660490918C
:1018000067048C179D07B9F0009711F00E94E00B58
:101810008E8D8E7F8E8F1092250410922404D0938B
:101820006704C0936604EB89FC8980819D89892BBC
:10183000808381E001C080E0DF91CF9108951F9205
:101840000F920FB60F9211242F933F934F935F93F4
:101850006F937F938F939F93AF93BF93EF93FF9378
:10186000E0916604F0916704309709F451C0868DC9
:10187000A685B785958581FF04C08C91892329F4BD
:1018800047C08C91892309F043C0A389B4899C91F6
:101890008589809589238C93868997890197F1F7AB
:1018A000208D318DA685B785758558E040E0C9014A
:1018B0000197F1F7842F90E095958795482F6C91CB
:1018C000672309F04068515091F7868D81FD40955E
:1018D0008091250490E001968F739927209124042C
:1018E000281749F0A0912504B0E0AA5DBB4F4C93A6
:1018F0008093250403C0868D8160868F828D938DB1
:101900000197F1F7A389B4898C919589892B8C93E0
:10191000FF91EF91BF91AF919F918F917F916F91C7
:101920005F914F913F912F910F900FBE0F901F909D
:1019300018952EE331E0FC01318320830C94E00BF9
:101940001F93CF93DF93EC01162F6E8D6695617018
:1019500081E06827812F0E940D1561E0812F0E9490
:10196000D414812F90E0FC01E655FF4FE491E88B01
:10197000FC01E254FF4FE491F0E0EE0FFF1FE45250
:10198000FF4F859194919A8B898BDF91CF911F9115
:1019900008951F93CF93DF93EC01162F60E0812F02
:1019A0000E94D4148E8D81FD04C061E0812F0E94BD
:1019B0000D151C87812F90E0FC01E655FF4FE49147
:1019C000ED87FC01E254FF4FE491F0E0EE0FFF1FC2
:1019D000EE52FF4F859194919F878E87DF91CF9133
:1019E0001F910895FF920F931F93CF93DF93EC0104
:1019F000F62E522F1B821A8208EE13E020E030E010
:101A00000C831D832E833F838EE391E0998388832B
:101A10001F8A1E8A198E188E1B8E1A8E1D8E1C8E82
:101A20008E8D8E7F50FB81F98E8F642FCE010E94A8
:101A3000A00C6F2DCE01DF91CF911F910F91FF90E0
:101A40000C94C90CCF93DF93EC019A01AB011B8E70
:101A50001A8E198E188E1F8A1E8A60E079E08DE337
:101A600090E00E94341DC9012430310520F0B901F5
:101A70006350710902C061E070E07D8F6C8FEC856E
:101A8000E63108F068C0B901769567956431710553
:101A900018F06351710902C061E070E07F8B6E8BBA
:101AA000069718F0C901059702C081E090E0998F70
:101AB000888FC901880F991F820F931F969587956C
:101AC000969587958D30910510F00C9702C081E0B6
:101AD00090E09B8F8A8F20916800E83050F091E071
:101AE000EE3008F490E081E001C0880F9A95EAF7A3
:101AF00001C084E0822B809368002C85283038F068
:101B00002E3040F0263148F48CE690E008C08DE697
:101B100090E005C08BE690E002C080E090E09C8BF6
:101B20008B8B283030F481E001C0880F2A95EAF7CA
:101B30000DC0822F90E02E3010F4089701C00E9750
:101B400091E001C0990F8A95EAF7892F8D8B8C8DD2
:101B50009D8D0197F1F7CE01DF91CF910C94F60B9B
:101B60008091980490E020919904821B9109089536
:101B70002091990480919804281750F4E22FF0E006
:101B8000E656FB4F808190E02F5F209399040895E3
:101B90008FEF9FEF0895E091990480919804E817E2
:101BA00030F4F0E0E656FB4F808190E008958FEF2F
:101BB0009FEF08950895CF92DF92EF92FF920F93D7
:101BC0001F93CF93DF937C01CB018A012091740492
:101BD000222389F0EB016B01C40ED51ECC15DD0567
:101BE00069F06991D701ED91FC910190F081E02DB0
:101BF000C7010995F3CF642F0E94900FC801DF91B0
:101C0000CF911F910F91FF90EF90DF90CF900895AB
:101C1000CF93DF931F92CDB7DEB769832091740411
:101C20002223D1F020917504203240F021E030E0F1
:101C3000FC013383228380E090E015C0809176041C
:101C4000E82FF0E0E958FB4F998190838F5F8093F4
:101C500076048093750405C061E0CE0101960E9470
:101C6000900F81E090E00F90DF91CF910895FC01FB
:101C70001382128248EE53E060E070E044835583A3
:101C8000668377838EE491E0918380830895109238
:101C900099041092980410927604109275040C9492
:101CA000D30E81E0809374046093970410927604BD
:101CB0001092750408950F93062F21E0409175044A
:101CC00067E774E0809197040E94390F10927604C0
:101CD00010927504109274040F9108958F929F9240
:101CE000AF92BF92CF92DF92EF92FF920F931F932A
:101CF000CF93DF93EC01F62ED42E48015901EE204C
:101D000019F10E94510E1E2D143008F013E01150ED
:101D1000B8F0E881F98128E0129FB0011124A501F3
:101D2000940104C056954795379527956A95D2F743
:101D3000CA01B9010190F081E02DCE010995E7CFEC
:101D400060E0CE010E945B0E4D2D413208F040E272
:101D50002C2D6AE974E08F2D0E94F10E10929904E7
:101D600080939804DF91CF911F910F91FF90EF9096
:101D7000DF90CF90BF90AF909F908F900895CF92BB
:101D8000EF920F931F93C22EE12C00E010E0980118
:101D90000E946E0E1F910F91EF90CF90089588E6EC
:101DA00094E00C94370E1092270581E0809325056E
:101DB0001092240561E082E10E940D1561E083E14B
:101DC0000E940D15E9EBF0E080818E7F8083808199
:101DD0008D7F808388E48093B80085E48093BC0085
:101DE0000895413208F043C0909127059111FCCF2E
:101DF00091E090932705209325052FEF2093BA04B7
:101E00001092FF04240F2093FE04909326059091D6
:101E10002605880F892B8093260580912405813023
:101E200061F410922405809126058093BB00809177
:101E3000BC0083FDF8CF85EC01C085EE8093BC002B
:101E4000809127058130E1F38091FF04841710F41D
:101E50004091FF0420E035E0FB01D9018A2F821B6D
:101E6000841718F48D918193F9CF842F089580E021
:101E700008950F93413208F04AC0909127059111BF
:101E8000FCCF92E090932705009325059FEF909358
:101E9000BA041092FF044093FE04FB0160E075E079
:101EA000DB019A2F961B941718F491919D93F9CF0B
:101EB0001092260590912605880F892B8093260580
:101EC00080912405813061F41092240580912605CB
:101ED0008093BB008091BC0083FDF8CF85EC01C0EE
:101EE00085EE8093BC00222321F08091270582306B
:101EF000E1F38091BA048F3F61F08091BA0480329F
:101F000051F08091BA04803341F483E007C081E04E
:101F100005C080E003C082E001C084E00F91089515
:101F2000613298F420912705243089F46093DC0411
:101F3000FC018EED94E0DC012A2F281B261718F4F3
:101F400021912D93F9CF80E0089581E0089582E0FA
:101F5000089585ED8093BC008091BC0084FDFCCF8A
:101F600010922705089585EC8093BC0010922705F8
:101F700008951F920F920FB60F9211242F933F9343
:101F80004F935F936F937F938F939F93AF93BF9381
:101F9000EF93FF938091B900887F803609F49EC04B
:101FA00078F5883209F45DC090F4803109F456C0A8
:101FB00038F4882309F4F5C0883009F44FC0F5C01F
:101FC000883109F44EC0803209F45FC0EEC080341D
:101FD00009F46AC058F4803309F457C0883309F013
:101FE000E4C08093BA040E94B30FDFC0803509F4C7
:101FF0004FC0883509F45DC0883409F0D6C0D3C01D
:10200000883909F4C4C0A8F4883709F467C038F4E3
:10201000883609F463C0803709F460C0C6C08838C8
:1020200009F4B5C0803909F45FC0803809F0BDC03B
:102030005BC0803B09F483C038F4803A09F466C081
:10204000883A09F47CC0B1C0803C09F4A4C0883C43
:1020500009F4A1C0883B09F487C0A7C08091260578
:1020600010C09091FF048091FE04981770F5E091E4
:10207000FF0481E08E0F8093FF04F0E0E050FB4FFF
:1020800080818093BB0085EC83C08093BA048BC0B1
:10209000E091FF0481E08E0F8093FF048091BB00EC
:1020A000F0E0E050FB4F80839091FF048091FE04AC
:1020B0006BC0E091FF0481E08E0F8093FF0480915C
:1020C000BB00F0E0E050FB4F80838091250581113B
:1020D0006AC081E08093240584EA5EC083E0809337
:1020E00027051092BB04CFCF8091BB04803208F04B
:1020F0004EC0E091BB0481E08E0F8093BB048091C1
:10210000BB00F0E0E454FB4F8083BDCF0E94B30FCF
:102110008091BB04803230F4E091BB04F0E0E454E1
:10212000FB4F10826091BB0470E0E0912005F091BC
:1021300021058CEB94E009951092BB0436C084E035
:10214000809327051092DD041092DC04E0912205B3
:10215000F091230509958091DC04811105C081E08F
:102160008093DC041092DE04E091DD0481E08E0FA8
:102170008093DD04F0E0E252FB4F80818093BB004E
:102180009091DD048091DC04981708F47CCF85E8F9
:102190008093BC000AC085EC8093BC001092270598
:1021A00004C01092BA040E94A90FFF91EF91BF9151
:1021B000AF919F918F917F916F915F914F913F91DF
:1021C0002F910F900FBE0F901F90189526E040E8BA
:1021D00055E260E070E08DEF95E00E947B1640E0F4
:1021E00052EC61E070E08DE295E00E94F80864E94D
:1021F00071E08DEF95E00E94DD1765EA71E08DE2F8
:1022000095E00E94DD1761E08CE00E94D41460E04C
:102210008DE00E94D41465EB71E08DEF95E00E9493
:10222000DD1742E063E085EA95E00E942F0685EA2B
:1022300095E00E94080661ED71E08DEF95E00E9447
:10224000DD1785EA95E00E94B803882319F06AE556
:1022500071E002C069E771E08DEF95E00E94DD1743
:1022600069E070E08AE295E00E94010B6FEF88E27E
:1022700095E00E94220264E088E295E00C94C2019D
:102280008F929F92AF92BF92CF92DF92EF92FF9286
:1022900085EA95E00E944A079093D1058093D00586
:1022A00085EA95E00E946F079093CF058093CE0555
:1022B00085EA95E00E9494079093CD058093CC0524
:1022C00085EA95E00E9438066B017C016093DE058B
:1022D0007093DF058093E0059093E10520E030E006
:1022E00040EA50E40E942F1A4B015C0120E030E0EC
:1022F00044EB53E40E94691C18164CF08092DA05F6
:102300009092DB05A092DC05B092DD0510C020E0C4
:1023100030E044EB53E4C501B4010E942E1A6093EF
:10232000DA057093DB058093DC059093DD0520E0F2
:1023300030E040EA50E4C701B6010E942E1A6B015A
:102340007C0120E030E0A9010E94F51A87FD09C058
:10235000C092D605D092D705E092D805F092D90563
:1023600010C020E030E044EB53E4C701B6010E9406
:102370002F1A6093D6057093D7058093D805909354
:10238000D905FF90EF90DF90CF90BF90AF909F90D6
:102390008F900895CF92DF92EF92FF926CED75E0EF
:1023A0008AE295E00E94070B66E988E295E00E94C8
:1023B000220261E088E295E00E94C201C090D2054D
:1023C000D090D305E090D405F090D5052091D605A6
:1023D0003091D7054091D8055091D905C701B60174
:1023E0000E94F51A87FD0EC02091DA053091DB05B9
:1023F0004091DC055091DD05C701B6010E94691CC2
:1024000018163CF482E090E09093F3058093F20577
:1024100006C01092F3051092F20580E090E0FF9064
:10242000EF90DF90CF9008956EE977E08AE295E033
:102430000E94070B6FEF88E295E00E94220261E0A4
:1024400088E295E00C94C2010F931F9360E08CE04A
:102450000E940D1582E090E00E94651461E08CE01E
:102460000E940D1585E090E00E94651460E08CE00C
:102470000E940D1520E432E44FE050E061E08DE071
:102480000E946C150E94941B2DEC3CEC48E652E433
:102490000E94F91A0E94611B8B019C0106501109D0
:1024A00021093109063211402105310548F46093B4
:1024B000EE057093EF058093F0059093F1050CC045
:1024C0008CE291E0A0E0B0E08093EE059093EF0500
:1024D000A093F005B093F1051F910F91089581E04D
:1024E0004091EE055091EF056091F0057091F10576
:1024F0004D335105610571050CF080E008956FEED4
:1025000071E08DEF95E00E94D01760E072E08DEFF2
:1025100095E00E94D0174091EE055091EF05609133
:10252000F0057091F1052AE030E08DEF95E00E9412
:1025300048186BEF71E08DEF95E00E94D0176FEFB8
:1025400071E08DEF95E00E94D01762E072E08DEFB0
:1025500095E00E94D0174091DE055091DF05609113
:10256000E0057091E10521E030E08DEF95E00E94FB
:1025700095196CE072E08DEF95E00E94DD1764E143
:1025800072E08DEF95E00E94D0176091F205709196
:10259000F3054AE050E08DEF95E00E94921866E264
:1025A00072E08DEF95E00E94D0174091D6055091D2
:1025B000D7056091D8057091D90522E030E08DEF04
:1025C00095E00E9495196EE372E08DEF95E00E9410
:1025D000D0174091DA055091DB056091DC057091D0
:1025E000DD0522E030E08DEF95E00E9497196DEC5B
:1025F00071E08DEF95E00E94DD176DEC71E08DEFDD
:1026000095E00C94DD170F931F930E9440110E94D8
:102610000E140091EA051091EB052091EC05309124
:10262000ED05601B710B820B930B0091E605109179
:10263000E7052091E8053091E905061717072807F7
:10264000390760F40E9424120E940E146093EA0578
:102650007093EB058093EC059093ED050E940E14AA
:102660000091E2051091E3052091E4053091E50524
:10267000601B710B820B930B653F714081059105C7
:1026800060F00E947F120E940E146093E205709326
:10269000E3058093E4059093E5058091F205909120
:1026A000F3058130910519F182309105B9F1892B3B
:1026B00009F046C00E94CA118091DE059091DF05A5
:1026C000A091E005B091E1058093D2059093D305E8
:1026D000A093D405B093D5050E946F12882381F191
:1026E00081E090E09093F3058093F20529C00E9469
:1026F00014121092F3051092F2058091DE0590916C
:10270000DF05A091E005B091E1058093D20590939B
:10271000D305A093D405B093D50512C060EB74E047
:102720008AE295E00E94070B66E988E295E00E9444
:10273000220261E088E295E01F910F910C94C201A2
:102740001F910F9108956EE185EA95E00E943C0289
:102750008DE295E00E94DA088AE295E00E94670A1D
:1027600042E064E088E295E00C9465018EE291E03D
:1027700090932E0580932D058BE995E00E94A91971
:102780008DE295E00C94990C1F920F920FB60F9268
:1027900011242F933F938F939F93AF93BF93809177
:1027A000F5059091F605A091F705B091F8053091E7
:1027B000F40523E0230F2D3720F40196A11DB11D50
:1027C00005C026E8230F0296A11DB11D2093F40534
:1027D0008093F5059093F605A093F705B093F8055F
:1027E0008091F9059091FA05A091FB05B091FC0547
:1027F0000196A11DB11D8093F9059093FA05A09350
:10280000FB05B093FC05BF91AF919F918F913F91D4
:102810002F910F900FBE0F901F9018952FB7F8941F
:102820006091F5057091F6058091F7059091F80596
:102830002FBF08953FB7F8948091F9059091FA055C
:10284000A091FB05B091FC0526B5A89B05C02F3FC4
:1028500019F00196A11DB11D3FBF6627782F892F62
:102860009A2F620F711D811D911D42E0660F771F27
:10287000881F991F4A95D1F70895CF92DF92EF9262
:10288000FF92CF93DF936B017C010E941A14EB013E
:10289000C114D104E104F10489F00E942D1A0E94B0
:1028A0001A146C1B7D0B683E734090F381E0C81ACC
:1028B000D108E108F108C851DC4FEACFDF91CF9190
:1028C000FF90EF90DF90CF9008958230910538F01F
:1028D000880F991F880F991F05970197F1F70895A1
:1028E000789484B5826084BD84B5816084BD85B5EB
:1028F000826085BD85B5816085BDEEE6F0E08081B2
:1029000081608083E1E8F0E01082808182608083D2
:10291000808181608083E0E8F0E080818160808355
:10292000E1EBF0E0808184608083E0EBF0E0808187
:1029300081608083EAE7F0E0808184608083808129
:1029400082608083808181608083808180688083D1
:102950001092C1000895833081F028F4813099F0FD
:102960008230A1F008958730A9F08830B9F0843022
:10297000D1F4809180008F7D03C0809180008F779B
:1029800080938000089584B58F7702C084B58F7DD1
:1029900084BD08958091B0008F7703C08091B0000E
:1029A0008F7D8093B0000895CF93DF9390E0FC017A
:1029B000E655FF4F2491FC01E254FF4F8491882398
:1029C00049F190E0880F991FFC01EA51FF4FA59152
:1029D000B49184529F4FFC01C591D4919FB761116E
:1029E00008C0F8948C91209582238C93888182234F
:1029F0000AC0623051F4F8948C91322F30958323C1
:102A00008C938881822B888304C0F8948C91822BCC
:102A10008C939FBFDF91CF9108950F931F93CF9316
:102A2000DF931F92CDB7DEB7282F30E0F901EA56C9
:102A3000FF4F8491F901E655FF4F1491F901E254DB
:102A4000FF4F04910023C9F0882321F069830E947D
:102A5000AB146981E02FF0E0EE0FFF1FE452FF4F4F
:102A6000A591B4919FB7F8948C91611103C0109512
:102A7000812301C0812B8C939FBF0F90DF91CF9159
:102A80001F910F910895CF93DF93282F30E0F90124
:102A9000EA56FF4F8491F901E655FF4FD491F901B1
:102AA000E254FF4FC491CC2391F081110E94AB14EA
:102AB000EC2FF0E0EE0FFF1FEE52FF4FA591B49107
:102AC0002C912D2381E090E021F480E002C080E091
:102AD00090E0DF91CF9108950F931F93762F90E0B0
:102AE000FC01E655FF4F6491FC01E254FF4FE49175
:102AF0007111762FF0E0EE0FFF1FEE52FF4F859120
:102B0000949189019A013F70472F0E94A900611595
:102B100071058105910531F06F5F7F4F8F4F9F4F9A
:102B20009F7003C060E070E0CB011F910F9108958A
:102B3000FC01818D228D90E0805C9F4F821B91096A
:102B40008F7399270895FC01918D828D981731F02C
:102B5000828DE80FF11D858D90E008958FEF9FEF36
:102B60000895FC01918D828D981761F0828DDF01AF
:102B7000A80FB11D5D968C91928D9F5F9F73928F70
:102B800090E008958FEF9FEF089585E397E1892BFB
:102B900049F080E090E0892B29F00E9435178111DF
:102BA0000C9400000895FC01848DDF01A80FB11D75
:102BB000A35ABF4F2C91848D90E001968F73992773
:102BC000848FA689B7892C93A089B1898C91806460
:102BD0008C93938D848D981306C00288F389E02D21
:102BE00080818F7D80830895CF93DF93EC01888D62
:102BF0008823C9F0EA89FB89808185FD05C0A88901
:102C0000B9898C9186FD0FC00FB607FCF5CF808186
:102C100085FFF2CFA889B9898C9185FFEDCFCE01D0
:102C20000E94D315E7CFDF91CF910895CF92DF9225
:102C3000FF920F931F93CF93DF931F92CDB7DEB711
:102C40006C0181E0D60158968C9358975B969C91C5
:102C50005B975C968C915C97981307C05096ED91AA
:102C6000FC915197808185FD2EC0F601038D10E007
:102C70000F5F1F4F0F731127F02EF601848DF8128E
:102C800011C00FB607FCF9CFD6015096ED91FC911B
:102C90005197808185FFF1CFC60169830E94D315CA
:102CA0006981EBCF838DE80FF11DE35AFF4F6083FD
:102CB000D6015B960C935B975296ED91FC915397DE
:102CC000808180620CC0D6015696ED91FC91579799
:102CD00060835096ED91FC91519780818064808350
:102CE00081E090E00F90DF91CF911F910F91FF90C5
:102CF000DF90CF900895BF92CF92DF92EF92FF9234
:102D0000CF93DF93EC016A017B01B22EE889F98948
:102D100082E08083411581EE580761057105A1F0BD
:102D200060E079E08DE390E0A70196010E94121D1A
:102D300021503109410951095695479537952795F5
:102D4000211580E1380798F0E889F989108260E858
:102D500074E88EE190E0A70196010E94121D2150B7
:102D60003109410951095695479537952795EC85C5
:102D7000FD853083EE85FF852083188EEC89FD89E3
:102D8000B082EA89FB89808180618083EA89FB893E
:102D9000808188608083EA89FB8980818068808364
:102DA000EA89FB8980818F7D8083DF91CF91FF90BD
:102DB000EF90DF90CF90BF9008951F920F920FB6C3
:102DC0000F9211242F938F939F93EF93FF93E09192
:102DD0000D06F0910E068081E0911306F091140625
:102DE00082FD12C09081809116068F5F8F732091B3
:102DF0001706821751F0E0911606F0E0E350FA4F03
:102E0000958F8093160601C08081FF91EF919F916D
:102E10008F912F910F900FBE0F901F9018951F92BA
:102E20000F920FB60F9211242F933F934F935F93FE
:102E30006F937F938F939F93AF93BF93EF93FF9382
:102E40008DEF95E00E94D315FF91EF91BF91AF9167
:102E50009F918F917F916F915F914F913F912F91B2
:102E60000F900FBE0F901F9018958DEF95E00E9468
:102E7000981521E0892B09F420E0822F0895109203
:102E800000061092FF0588EE93E0A0E0B0E080938A
:102E9000010690930206A0930306B093040686E50C
:102EA00092E09093FE058093FD0585EC90E0909371
:102EB0000A068093090684EC90E090930C068093B8
:102EC0000B0680EC90E090930E0680930D0681EC4B
:102ED00090E09093100680930F0682EC90E0909320
:102EE00012068093110686EC90E09093140680936E
:102EF00013061092160610921706109218061092DA
:102F00001906089508950E9470140E9482170E9465
:102F1000E610C5ECD5E10E9403132097E1F30E946F
:102F2000C515F9CFCF92DF92EF92FF920F931F93C7
:102F3000CF93DF937C016A01EB0100E010E00C15F8
:102F40001D0571F06991D701ED91FC910190F0811F
:102F5000E02DC7010995892B19F00F5F1F4FEFCFA7
:102F6000C801DF91CF911F910F91FF90EF90DF90FB
:102F7000CF9008956115710581F0DB010D9000205F
:102F8000E9F7AD0141505109461B570BDC01ED91AA
:102F9000FC910280F381E02D099480E090E0089597
:102FA0000C94BA17DC01ED91FC910190F081E02DB9
:102FB000099462E672E00C94BA170F931F93CF93B3
:102FC000DF93EC010E94BA178C01CE010E94D91741
:102FD000800F911FDF91CF911F910F9108958F92D4
:102FE0009F92AF92BF92CF92DF92EF92FF920F9398
:102FF0001F93CF93DF93CDB7DEB7A1970FB6F894A9
:10300000DEBF0FBECDBF7C01C42EE52FCB01D22E7B
:1030100019A221E02D1510F02AE0D22E8E010F5DAD
:103020001F4F8D2C912CA12CB12C6C2D7E2FA50126
:1030300094010E94121D8C2DD29E801911240150E2
:1030400011098A3014F4805D01C0895CF801808325
:10305000211531054105510521F0C22EE32FCA018A
:10306000E4CFB801C7010E94BA17A1960FB6F89431
:10307000DEBF0FBECDBFDF91CF911F910F91FF90AB
:10308000EF90DF90CF90BF90AF909F908F9008957A
:10309000CF92DF92EF92FF920F931F93CF93DF9324
:1030A000EC016A017B012115310579F4E881F98190
:1030B0000190F081E02D642FDF91CF911F910F914E
:1030C000FF90EF90DF90CF9009942A303105E9F41A
:1030D00077FF1AC06DE20E94D2178C014427552752
:1030E000BA014C195D096E097F092AE0CE010E94E0
:1030F000EF17800F911FDF91CF911F910F91FF90DC
:10310000EF90DF90CF9008952AE0B701A601CE019D
:10311000DF91CF911F910F91FF90EF90DF90CF90B3
:103120000C94EF170F931F93CF93DF93EC019A0149
:10313000AB01662757FD6095762F0E9448188C01D9
:10314000CE010E94D917800F911FDF91CF911F915F
:103150000F9108954F925F926F927F928F929F92FC
:10316000AF92BF92CF92DF92EF92FF920F931F9395
:10317000CF93DF93EC016A017B01B22E9A01AB0180
:10318000C701B6010E94DA1C882319F065E672E0D7
:1031900027C026013701E89477F82FEF3FEF4FE77C
:1031A0005FE7C301B2010E94DA1C81110DC02FEF4D
:1031B0003FEF4FE75FE7C301B2010E94F51A18160F
:1031C0001CF469E672E00CC02FEF3FEF4FE75FE4BD
:1031D000C701B6010E94691C1816ACF46DE672E0D6
:1031E000CE01DF91CF911F910F91FF90EF90DF9073
:1031F000CF90BF90AF909F908F907F906F905F9097
:103200004F900C94BA172FEF3FEF4FE75FECC701D9
:10321000B6010E94F51A87FDE1CF20E030E0A90158
:10322000C701B6010E94F51A87FF0AC06DE2CE0100
:103230000E94D2178C01F7FAF094F7F8F09402C0CC
:1032400000E010E0A12C60E070E080E09FE3AB14B0
:1032500041F020E030E040E251E40E94F91AA394EA
:10326000F6CF9B01AC01C701B6010E942F1A6B017A
:103270007C010E94661B2B013C010E94921B9B015A
:10328000AC01C701B6010E942E1A6B017C012AE035
:10329000B301A201CE010E94EF17080F191FBB2036
:1032A00039F06FEC71E0CE010E94BA17080F191FB8
:1032B0007B2C772041F120E030E040E251E4C7016F
:1032C000B6010E94741C6B017C010E94611B4B01C2
:1032D000AA2497FCA094BA2C2AE030E0B501A401FE
:1032E000CE010E944818080F191FC501B4010E94A1
:1032F000941B9B01AC01C701B6010E942E1A6B0101
:103300007C017A94D6CFC801DF91CF911F910F91A4
:10331000FF90EF90DF90CF90BF90AF909F908F90F5
:103320007F906F905F904F9008950C94AA180F9320
:103330001F93CF93DF93EC010E94AA188C01CE015A
:103340000E94D917800F911FDF91CF911F910F918C
:103350000895FC01808191810C94F11DCF93DF933E
:10336000EC0188819981009711F00E94F11D19826A
:1033700018821D821C821B821A82DF91CF910895D0
:103380000F931F93CF93DF93EC018B016F5F7F4F00
:10339000888199810E94801E009731F099838883EB
:1033A0001B830A8381E001C080E0DF91CF911F91F0
:1033B0000F910895CF93DF93EC0188819981892B38
:1033C00029F08A819B818617970760F4CE010E94BD
:1033D000C019882341F08C819D81892B19F4E881E3
:1033E000F981108281E0DF91CF910895EF92FF92F1
:1033F0000F931F93CF93DF93EC017B018A01BA01F6
:103400000E94DA19811104C0CE010E94AE1907C0D2
:103410001D830C83B701888199810E94531FCE01BF
:10342000DF91CF911F910F91FF90EF900895FC01D4
:103430001182108213821282158214826115710525
:1034400059F0FB0101900020E9F7AF01415051090B
:10345000461B570B0C94F619089508955058BB2736
:10346000AA270ED0FCC1EDD130F0F2D120F031F41A
:103470009F3F11F41EF4BDC10EF4E095E7FBB3C10C
:10348000E92FFED180F3BA17620773078407950707
:1034900018F071F49EF516C20EF4E0950B2EBA2FBB
:1034A000A02D0B01B90190010C01CA01A00111244A
:1034B000FF27591B99F0593F50F4503E68F11A16F6
:1034C000F040A22F232F342F4427585FF3CF469587
:1034D00037952795A795F0405395C9F77EF41F16A9
:1034E000BA0B620B730B840BBAF09150A1F0FF0F73
:1034F000BB1F661F771F881FC2F70EC0BA0F621F5F
:10350000731F841F48F4879577956795B795F7954E
:103510009E3F08F0B3CF9395880F08F09927EE0FE0
:103520009795879508958DD158F080E891E009F43A
:103530009EEF8ED128F040E851E059F45EEF09C0CB
:1035400058C1C0C1E92FE0789BD168F3092E052A44
:10355000C1F3261737074807590738F00E2E07F82A
:10356000E02569F0E025E0640AC0EF6307F8009405
:1035700007FADB01B9019D01DC01CA01AD01EF933E
:1035800047D06DD10AD05F91552331F02BED3FE04C
:1035900049E450FD49EC63CF0895DF93DD27B92F4F
:1035A000BF7740E85FE31616170648075B0710F47D
:1035B000D92F93D19F938F937F936F93F8D1E8E6A0
:1035C000F0E01AD14CD12F913F914F915F9198D15A
:1035D000DD2349F09058A2EA2AED3FE049EC5FE391
:1035E000D0785D274DDFDF913AC1D9D008F481E072
:1035F00008950CD034C12CD140F023D130F021F407
:103600005F3F19F0F0C051115EC1F3C039D198F39A
:103610009923C9F35523B1F3951B550BBB27AA2753
:1036200062177307840738F09F5F5F4F220F331FC5
:10363000441FAA1FA9F333D00E2E3AF0E0E830D091
:1036400091505040E695001CCAF729D0FE2F27D094
:10365000660F771F881FBB1F261737074807AB0762
:10366000B0E809F0BB0B802DBF01FF2793585F4FD7
:103670002AF09E3F510568F0B6C025C15F3FECF3CC
:10368000983EDCF3869577956795B795F7959F5F9C
:10369000C9F7880F911D9695879597F90895E1E0F0
:1036A000660F771F881FBB1F621773078407BA074F
:1036B00020F0621B730B840BBA0BEE1F88F7E095AA
:1036C000089504D06894B111FEC00895E1D088F047
:1036D0009F5790F0B92F9927B751A0F0D1F0660FFE
:1036E000771F881F991F1AF0BA95C9F712C0B13019
:1036F00081F0E8D0B1E00895E5C0672F782F8827E2
:10370000B85F39F0B93FCCF3869577956795B39557
:10371000D9F73EF490958095709561957F4F8F4FC6
:103720009F4F0895E89409C097FB3EF490958095CB
:10373000709561957F4F8F4F9F4F9923A9F0F92F77
:1037400096E9BB279395F695879577956795B795F5
:10375000F111F8CFFAF4BB0F11F460FF1BC06F5FDB
:103760007F4F8F4F9F4F16C0882311F096E911C0ED
:10377000772321F09EE8872F762F05C0662371F00E
:1037800096E8862F70E060E02AF09A95660F771F22
:10379000881FDAF7880F9695879597F90895990FFE
:1037A0000008550FAA0BE0E8FEEF16161706E8070B
:1037B000F907C0F012161306E407F50798F0621B2C
:1037C000730B840B950B39F40A2661F0232B242B01
:1037D000252B21F408950A2609F4A140A6958FEF20
:1037E000811D811D089597F99F6780E870E060E072
:1037F00008959FEF80EC0895DF93CF931F930F936D
:10380000FF92EF92DF927B018C01689405C0DA2E63
:10381000EF0176D0FE01E894A5912591359145916F
:103820005591AEF3EF012CDEFE019701A801DA9469
:1038300079F7DF90EF90FF900F911F91CF91DF917B
:10384000089500240A941616170618060906089506
:1038500000240A9412161306140605060895092E6C
:103860000394000C11F4882352F0BB0F40F4BF2BDB
:1038700011F460FF04C06F5F7F4F8F4F9F4F08951B
:1038800057FD9058440F551F59F05F3F71F0479511
:10389000880F97FB991F61F09F3F79F087950895F6
:1038A000121613061406551FF2CF4695F1DF08C015
:1038B000161617061806991FF1CF86957105610532
:1038C00008940895E894BB2766277727CB0197F9DA
:1038D000089565DF08F48FEF08959B01AC0160E067
:1038E00070E080E89FE385CE0BD0B9CFAADF28F047
:1038F000AFDF18F0952309F076CF7BCF1124E3CF0B
:10390000BFDFA0F3959FD1F3950F50E0551F629F45
:10391000F001729FBB27F00DB11D639FAA27F00D28
:10392000B11DAA1F649F6627B00DA11D661F829F4F
:103930002227B00DA11D621F739FB00DA11D621F34
:10394000839FA00D611D221F749F3327A00D611D51
:10395000231F849F600D211D822F762F6A2F112433
:103960009F5750408AF0E1F088234AF0EE0FFF1F86
:10397000BB1F661F771F881F91505040A9F79E3FBD
:10398000510570F030CF9FCF5F3FECF3983EDCF3F2
:10399000869577956795B795F795E7959F5FC1F7FA
:1039A000FE2B880F911D9695879597F908959B0199
:1039B000AC019ACFF4DE880B990B0895991B79E03E
:1039C00004C0991F961708F0961B881F7A95C9F7AF
:1039D00080950895AA1BBB1B51E107C0AA1FBB1FFE
:1039E000A617B70710F0A61BB70B881F991F5A958B
:1039F000A9F780959095BC01CD01089597FB072EFE
:103A000016F4009407D077FD09D00E94EA1C07FC49
:103A100005D03EF4909581959F4F089570956195DE
:103A20007F4F0895A1E21A2EAA1BBB1BFD010DC0FA
:103A3000AA1FBB1FEE1FFF1FA217B307E407F5075E
:103A400020F0A21BB30BE40BF50B661F771F881F3A
:103A5000991F1A9469F760957095809590959B01D0
:103A6000AC01BD01CF010895052E97FB1EF4009413
:103A70000E944B1D57FD07D00E94121D07FC03D06A
:103A80004EF40C944B1D50954095309521953F4F29
:103A90004F4F5F4F089590958095709561957F4F3A
:103AA0008F4F9F4F0895EE0FFF1F0590F491E02D6B
:103AB0000994CF93DF938230910510F482E090E077
:103AC000E0919C06F0919D0620E030E0A0E0B0E09F
:103AD000309739F14081518148175907B8F048179C
:103AE000590771F482819381109729F013969C9362
:103AF0008E9312972CC090939D0680939C0627C0AE
:103B00002115310531F04217530718F0A901DB01E7
:103B100001C0EF019A01BD01DF010280F381E02DB8
:103B2000D7CF21153105F9F0281B390B2430310589
:103B300080F48A819B816115710521F0FB019383DB
:103B4000828304C090939D0680939C06FE0132966A
:103B500044C0FE01E20FF31F81939193225031097B
:103B6000398328833AC020919A0630919B06232BF3
:103B700041F4209102013091030130939B06209380
:103B80009A0620910001309101012115310541F47F
:103B90002DB73EB74091040150910501241B350B10
:103BA000E0919A06F0919B06E217F307A0F42E1B12
:103BB0003F0B2817390778F0AC014E5F5F4F241791
:103BC000350748F04E0F5F1F50939B0640939A06AF
:103BD0008193919302C0E0E0F0E0CF01DF91CF91BB
:103BE0000895CF93DF93009709F487C0FC013297C3
:103BF00013821282C0919C06D0919D06209781F479
:103C000020813181280F391F80919A0690919B065F
:103C10008217930779F5F0939B06E0939A066DC09F
:103C2000DE0120E030E0AE17BF0750F412964D9150
:103C30005C9113979D014115510509F1DA01F3CF0C
:103C4000B383A28340815181840F951F8A179B07FC
:103C500071F48D919C911197840F951F0296918319
:103C6000808312968D919C91139793838283211563
:103C7000310529F4F0939D06E0939C063EC0D901DE
:103C80001396FC93EE9312974D915D91A40FB51F7F
:103C9000EA17FB0779F480819181840F951F0296C2
:103CA000D90111969C938E938281938113969C9354
:103CB0008E931297E0E0F0E08A819B81009719F0E3
:103CC000FE01EC01F9CFCE01029628813981820FE5
:103CD000931F20919A0630919B062817390769F4A3
:103CE000309729F410929D0610929C0602C0138210
:103CF0001282D0939B06C0939A06DF91CF910895CC
:103D0000A0E0B0E0E6E8FEE10C94741FEC01CB010A
:103D1000209719F40E94591DB8C0FE01E60FF71F45
:103D20009E0122503109E217F30708F4ACC0D90113
:103D30000D911C91119706171707B8F00530110562
:103D400008F49FC0A801445051094617570708F4CA
:103D500098C002501109061B170B019311936D9324
:103D60007C93CF010E94F11D8CC05B01A01AB10AA7
:103D70004E01800E911EA0919C06B0919D06612C73
:103D8000712C60E070E0109709F449C0A815B905DE
:103D9000C9F5ED90FC901197670142E0C40ED11C6B
:103DA000CA14DB0478F147018A189B08640142E0D9
:103DB000C40ED11C1296BC9012971396AC91B5E02C
:103DC000CB16D10440F0B282A38391828082D901C4
:103DD0008D939C9309C00E5F1F4F0E0D1F1DF9019F
:103DE00011830083EB2DFA2F6115710531F0DB0192
:103DF0001396FC93EE93129744C0F0939D06E093C4
:103E00009C063FC06D917C9111976616770608F469
:103E10003B01BD0112960D90BC91A02DB4CF6091D5
:103E20009A0670919B0668157905E9F4681679067B
:103E3000D0F440910001509101014115510541F428
:103E40004DB75EB76091040170910501461B570B99
:103E5000E417F507C0F4F0939B06E0939A06F90186
:103E6000918380830EC00E94591D7C01009759F0F8
:103E7000A801BE010E944A1FCE010E94F11DC70188
:103E800004C0CE0102C080E090E0CDB7DEB7EEE026
:103E90000C94901FFB01DC0102C001900D92415077
:103EA0005040D8F70895FB01DC0101900D920020ED
:103EB000E1F70895F999FECF92BD81BDF89A99274F
:103EC00080B50895262FF999FECF1FBA92BD81BD06
:103ED00020BD0FB6F894FA9AF99A0FBE019608958C
:103EE0002F923F924F925F926F927F928F929F920A
:103EF000AF92BF92CF92DF92EF92FF920F931F93F8
:103F0000CF93DF93CDB7DEB7CA1BDB0B0FB6F894A8
:103F1000DEBF0FBECDBF09942A88398848885F84E8
:103F20006E847D848C849B84AA84B984C884DF8059
:103F3000EE80FD800C811B81AA81B981CE0FD11D3D
:103F40000FB6F894DEBF0FBECDBFED01089510E0AF
:103F5000CAEFD0E004C0FE010E94551D2296CE3F5C
:083F6000D107C9F7F894FFCF67
:103F680000009E0680000100000000000B0A030903
:103F78000C0D080200001011140F150E0607050499
:103F880000000000000000003D000000000065097E
:103F9800921789096F09AE0BAD0B000000005B0B8F
:103FA8009217C80B3A0BAE0BAD0B00000000080EC1
:103FB800DB0DB00DB80DCB0DDA0D484D4335383853
:103FC800334C20636F6E6E656374696F6E20737512
:103FD800636365737366756C00484D4335383833D1
:103FE8004C20636F6E6E656374696F6E20666169DD
:103FF8006C656400426C7565746F6F7468205374E7
:104008006172742100426C7565746F6F7468205317
:104018007461727400496E697469616C697A696E59
:10402800672049324320646576696365732E2E2EB6
:104038000054657374696E672064657669636520EA
:10404800636F6E6E656374696F6E732E2E2E0044F7
:10405800697374616E6365203A200020636D0009FE
:10406800090048656164696E67203A0020646567E5
:104078007265650053746174655F66776420566184
:104088006C75653A090048656164696E6720282D7A
:104098002920546F6C6572616E63653A20000909C6
:1040A800282B2920546F6C6572616E63653A202055
:1040B800200000000000161692179815B115A315D8
:1040C800F4150D0A006E616E00696E66006F766603
:0240D8000000E6
:00000001FF
